:020000040800F2
:10000000003000205D380008292B0008312B000843
:1000100000000000000000000000000000000000E0
:10002000000000000000000000000000392B000864
:100030000000000000000000432B00084D2B0008CA
:10004000AD380008AD380008AD380008AD380008FC
:10005000AD380008AD380008AD380008AD380008EC
:1000600000000000AD380008AD380008AD380008C9
:10007000AD380008AD380008AD380008AD380008CC
:10008000AD380008AD380008AD380008AD380008BC
:10009000AD380008AD38000800000000AD38000899
:1000A000AD380008AD380008AD380008AD3800089C
:1000B000AD380008AD380008AD380008AD3800088C
:1000C00010B5064C2378002B07D1054B002B02D02E
:1000D000044800E000BF0123237010BD94000020FD
:1000E00000000000C84E0008044B10B5002B03D0E0
:1000F0000349044800E000BF10BDC04600000000F6
:1001000098000020C84E0008002243088B4274D398
:1001100003098B425FD3030A8B4244D3030B8B4208
:1001200028D3030C8B420DD3FF22090212BA030C11
:100130008B4202D31212090265D0030B8B4219D3F2
:1001400000E0090AC30B8B4201D3CB03C01A524112
:10015000830B8B4201D38B03C01A5241430B8B425A
:1001600001D34B03C01A5241030B8B4201D30B0343
:10017000C01A5241C30A8B4201D3CB02C01A52416A
:10018000830A8B4201D38B02C01A5241430A8B422D
:1001900001D34B02C01A5241030A8B4201D30B0216
:1001A000C01A5241CDD2C3098B4201D3CB01C01A30
:1001B000524183098B4201D38B01C01A524143093A
:1001C0008B4201D34B01C01A524103098B4201D328
:1001D0000B01C01A5241C3088B4201D3CB00C01A95
:1001E000524183088B4201D38B00C01A524143080D
:1001F0008B4201D34B00C01A5241411A00D2014632
:10020000524110467047FFE701B5002000F0F0F8BA
:1002100002BDC0460029F7D076E7704703460B437E
:100220007FD4002243088B4274D303098B425FD3EF
:10023000030A8B4244D3030B8B4228D3030C8B421B
:100240000DD3FF22090212BA030C8B4202D3121201
:10025000090265D0030B8B4219D300E0090AC30BD6
:100260008B4201D3CB03C01A5241830B8B4201D383
:100270008B03C01A5241430B8B4201D34B03C01A6C
:100280005241030B8B4201D30B03C01A5241C30AE4
:100290008B4201D3CB02C01A5241830A8B4201D355
:1002A0008B02C01A5241430A8B4201D34B02C01A3F
:1002B0005241030A8B4201D30B02C01A5241CDD2E4
:1002C000C3098B4201D3CB01C01A524183098B422F
:1002D00001D38B01C01A524143098B4201D34B0118
:1002E000C01A524103098B4201D30B01C01A52417B
:1002F000C3088B4201D3CB00C01A524183088B4202
:1003000001D38B00C01A524143088B4201D34B00EA
:10031000C01A5241411A00D201465241104670475C
:100320005DE0CA0F00D04942031000D34042534061
:1003300000229C4603098B422DD3030A8B4212D321
:10034000FC22890112BA030A8B420CD38901921153
:100350008B4208D3890192118B4204D389013AD090
:10036000921100E08909C3098B4201D3CB01C01A65
:10037000524183098B4201D38B01C01A5241430978
:100380008B4201D34B01C01A524103098B4201D366
:100390000B01C01A5241C3088B4201D3CB00C01AD3
:1003A000524183088B4201D38B00C01A5241D9D2EB
:1003B00043088B4201D34B00C01A5241411A00D26C
:1003C0000146634652415B10104601D34042002B68
:1003D00000D54942704763465B1000D3404201B5E7
:1003E000002000F005F802BD0029F8D016E770479C
:1003F0007047C046002B11D1002A0FD1002900D12F
:10040000002802D00021C943080007B4024802A115
:100410004018029003BDC046D9FFFFFF03B46846F1
:1004200001B5029800F034F8019B9E4602B00CBC66
:100430007047C046F0B5CE469946030C9C4613045F
:1004400047461B0C1D000E0061460404240C80B5B9
:100450000700100C4B436543414360432C0CC0180C
:1004600024188C46A34203D980235B029846C444D7
:10047000494679435643230C2D042D0C89196344B6
:1004800024046019C918C0BCB946B046F0BDC046C6
:10049000F0B557464E464546DE46E0B504000D0031
:1004A0009246994683B08B4230D82DD0494650466B
:1004B00000F0BAF829000600200000F0B5F8331A61
:1004C0009846203B34D49B4653465A469340424676
:1004D0001F00534693401E00AF423BD8AF4200D1AD
:1004E00079E05B46A41BBD41002B00DA76E00022D8
:1004F00000230092019301235A4693400193012364
:1005000042469340009329E08242CFD90022002343
:10051000009201930C9B002B01D01C605D60009841
:10052000019903B0F0BCBB46B246A946A046F0BD57
:1005300042469B4620239B1A5246DA40414613000E
:100540004A468A40170042461F43534693401E00C6
:10055000AF42C3D900220023009201934346002BEF
:10056000D8D0FB0772081A4346467B080EE0AB4220
:1005700001D1A2420CD8A41A9D41012024196D4139
:100580000021013E24184D41002E06D0AB42EED989
:10059000013E24196D41002EF8D1009801995B4667
:1005A00000196941002B24DB2B005A464646D340F4
:1005B0002A001C00F2405B461500002B2ADB2600B7
:1005C0009E40330026004746BE403200801A9941C3
:1005D000009001919EE7A342BCD882E742462023C7
:1005E00000219B1A0022009101920122DA4001921F
:1005F00085E7424620239B1A2A0046469A4023005C
:10060000F340464613432A001C00F2405B461500A7
:10061000002BD4DA202342462F009B1B9740260054
:10062000DE403B003343CDE710B5002903D100F095
:1006300007F8203002E0080000F002F810BDC046C4
:100640001C2101231B04984201D3000C10391B0A02
:10065000984201D3000A08391B09984201D30009C6
:10066000043902A2105C40187047C046040302021D
:1006700001010101000000000000000080B586B00B
:1006800000AFF860B9607A6003F084F903007B6121
:1006900009E003F07FF902007B69D31A7A689A4275
:1006A00001D8002305E0FB681B68BA681340F0D04E
:1006B00001231800BD4606B080BD80B586B000AFEE
:1006C000F860B9607A6003F065F903007B6109E0C6
:1006D00003F060F902007B69D31A7A689A4201D864
:1006E000002305E0FB681B68BA681340F0D10123C2
:1006F0001800BD4606B080BD80B500AF124B9B68A8
:10070000012213400BD0104B9A680F4B02210A4371
:100710009A600E4B052201211800FFF7CEFF0A4B0D
:100720009A68094B0A490A409A600A4B1A68094BB1
:1007300009490A401A60094B1A6E084B08490A40D9
:100740001A66C046BD4680BD002401400824014011
:10075000FFFFFFEF08270140FFFFBFFF001002402F
:10076000FFFFEFFF80B586B000AF3B1D18001423DC
:100770001A00002104F072FB0F4BDA6C0E4B0121C2
:100780000A43DA640C4BDB6C012213403B603B688C
:100790003B1D01221A603B1D03225A603B1D0022B3
:1007A0009A603A1DA023DB051100180003F06AFBD4
:1007B000C046BD4606B080BD00100240B0B58CB04A
:1007C00000AFF860FB68002B01D1002319E1FB6842
:1007D00000221A808D4B1A6E8C4B802149030A43EC
:1007E0001A668A4B1A6E80235B0313407B617B6918
:1007F000874B0022DA60864B802212061A61844BF6
:1008000007225A61834B1A68824B8021C9030A432D
:100810001A607F4B9A687E4B802149050A439A6093
:10082000012003F0C1F87A4B9A68794B80210906C0
:100830000A439A6080231B06774805221900FFF7B8
:100840003CFF03001A0001235340DBB2002B03D00E
:10085000FFF752FF0023D4E06D4B802292011A6013
:100860006B4B812252019A6280239B0168480522CA
:100870001900FFF703FF03001A0001235340DBB206
:10088000002B03D0FFF738FF0023BAE0604B0122B2
:100890001A605F4B9A685E4B01210A439A605C4B79
:1008A000052201211800FFF7E9FE03001A000123C9
:1008B0005340DBB2002B03D0FFF71EFF0023A0E064
:1008C000534B1C221A60524B9A68514B04210A4325
:1008D0009A604F4B052204211800FFF7CFFE03005A
:1008E0001A0001235340DBB2002B03D0FFF704FFB3
:1008F000002386E0464B1B6CFB62454B052204211E
:100900001800FFF7BBFE03001A0001235340DBB2BF
:10091000002B03D0FFF7F0FE002372E03C4B1B6C72
:10092000BB623E4BFA6A1A603D4BBA6A1A60FFF727
:10093000E3FE3C4A1E2108200B18DB1912881A809E
:10094000FA6A80235B019A4212D2BB6A002B0FD055
:10095000BA6A80235B019A420AD20B18DB191B8802
:10096000002B05D00B18DB191B882F4A934201D1AD
:10097000002346E01E2308229B18DB191B882B4A04
:100980005A43BB6A5B08D318B96A1800FFF7BCFB6F
:1009900003003B62264B3A6A1A60FB6A1C00002384
:1009A0001D003B6A3B6000237B603A687B68200047
:1009B0002900FFF73FFD02000B0092185B41100079
:1009C00019001C4A0023801859411B4A0023FFF7D5
:1009D00011FD02000B00BA61FB61FB69002B07D11E
:1009E000FB69002B06D1BA6980235B029A4201D3CE
:1009F000002306E0BA69FB69131C9AB2FB681A80EF
:100A000001231800BD460CB0B0BDC0460010024026
:100A1000002401400827014008240140B0000020C4
:100A2000B4000020A46EFF1FFFFF0000B80B000001
:100A3000B8000020FF070000FF0F000080B582B063
:100A400000AFFB1D00221A7016E0104B0122082196
:100A5000180003F0A0FB642002F0A6FF0B4B00225D
:100A60000821180003F097FB642002F09DFFFB1D96
:100A70001A78FB1D01321A70FB1D1B78022BE4D97A
:100A8000C046C046BD4602B080BDC04600140050FE
:100A900080B582B000AF786039603B681B0EDAB277
:100AA0007B681A703B681A0C7B680133D2B21A70EB
:100AB0003B681A0A7B680233D2B21A707B68033330
:100AC0003A68D2B21A70C046BD4602B080BD80B549
:100AD00082B000AF78600A00BB1C1A80BB1C1B8868
:100AE0001B0A9BB2DAB27B681A707B680133BA1CAE
:100AF0001288D2B21A70C046BD4602B080BD80B521
:100B000082B000AF78607B681B781A067B6801337F
:100B10001B781B041A437B6802331B781B021343A8
:100B20007A680332127813431800BD4602B080BDC4
:100B300090B585B000AFF860B9607A601A00FB1C10
:100B40001A70FB684D221A70FB68013359221A7023
:100B5000FB68023343221A70FB6803334F221A707A
:100B6000FB68043301221A70FB68053302221A70F5
:100B7000FB689A1DBB681B6819001000FFF788FF0F
:100B8000FB680A337A6811001800FFF781FFFB68E1
:100B90000E331C0002F0FEFE0200FA239900100042
:100BA000FFF7B2FA030019002000FFF771FFFB1CEA
:100BB0001B78002B01D0012200E000222423FB1827
:100BC0001B78002B01D0022300E000231343DAB28C
:100BD0002823FB181B78002B01D0042300E00023FE
:100BE0001343D9B22023FB181B78002B01D0082314
:100BF00000E00023FA6812320B43DBB21370FB688B
:100C000013331A002423FB181B78002B02D03B6BF4
:100C10001B8800E0002319001000FFF758FFFB6855
:100C200015331A002423FB181B78002B04D03B6BD0
:100C300002215B5E9BB200E0002319001000FFF769
:100C400046FFFB6817331A002423FB181B78002B80
:100C500002D03B6B9B8800E0002319001000FFF7D7
:100C600036FFFB6819333422BA1812781A70FB6801
:100C70001A331A00BB68DB6819001000FFF708FF81
:100C8000FB681E331C00BB685B68FA2291001800E9
:100C9000FFF73AFA030019002000FFF7F9FEFB689E
:100CA00022331A002823FB181B78002B03D02C2397
:100CB000FB181B8800E0002319001000FFF707FF56
:100CC000C046BD4605B090BD90B58BB002AFF86090
:100CD000B9607A603B60FB68002B25D0BB68002BB5
:100CE00022D07B68002B1FD03B68002B1CD0FB68F8
:100CF00040229B5C162B17D1FB681B784D2B13D120
:100D0000FB685B78592B0FD1FB689B78432B0BD189
:100D1000FB68DB784F2B07D1FB681B79012B03D1D4
:100D2000FB685B79802B01D0002329E0FB68063348
:100D30001800FFF7E4FE0300FB61FB680A331800AC
:100D4000FFF7DDFE02007B681A60FB680E331800B7
:100D5000FFF7D5FE0300BB61FB6812331800FFF7F5
:100D6000CEFE03007B617B681A68BC69F969B868CC
:100D70003B6801937B690093230001F015F90300A0
:100D80001800BD4609B090BD90B585B000AFF860C1
:100D9000B9607A601A00FB1C1A70FB684D221A7049
:100DA000FB68013359221A70FB68023343221A7020
:100DB000FB6803334F221A70FB68043301221A7058
:100DC000FB68053381221A70FB689A1DBB681B689B
:100DD00019001000FFF75CFEFB680A337A68110007
:100DE0001800FFF755FEFB680E331A00BB68DB687E
:100DF00019001000FFF74CFEFB681233FA1C127842
:100E00001A70FB6813331C00BB685B68FA22910000
:100E10001800FFF779F9030019002000FFF738FEEA
:100E2000C046BD4605B090BD80B584B000AFF86047
:100E3000B9607A60FB68002B34D0BB68002B31D0DE
:100E4000FB6840229B5C0E2B2CD1FB681B784D2B42
:100E500028D1FB685B78592B24D1FB689B78432B06
:100E600020D1FB68DB784F2B1CD1FB681B79012B51
:100E700018D1FB685B79822B14D1FB68063318000C
:100E8000FFF73DFE0200BB681B689A420AD1FB686F
:100E90000A331800FFF733FE02007B68934201D14A
:100EA000012300E000231A1C01231340DBB21800C9
:100EB000BD4604B080BD80B584B000AFF860B960B5
:100EC0007A60FB684D221A70FB68013359221A7050
:100ED000FB68023343221A70FB6803334F221A70F7
:100EE000FB68043301221A70FB68053303221A7071
:100EF000FB689A1DBB681B6819001000FFF7C8FD4E
:100F0000FB680A337A6811001800FFF7C1FDC0467C
:100F1000BD4604B080BD0000F0B5CBB006AF02F016
:100F2000C6FC00F02DFE00F071FEFFF787FD01F01A
:100F300015FE01F0ABF8FFF715FCDA4BDA4AA025F5
:100F40007819002100F0BEFFD323FC187B1918008C
:100F500000F0F6FF030023707B191B68002B2AD1D9
:100F6000002386225200BA18136018E0CF4B0122EA
:100F70000821180003F00FF95A2002F015FDCB4BA1
:100F800000220821180003F006F96E2002F00CFD83
:100F900086225200BB181B680133BA1813608623DF
:100FA0005B00FB181B68032BE0D9E123DB00180072
:100FB00002F0FAFCD4E79F217B1800221A707B18FC
:100FC000180001F057FE03001A000C20FF303B18F8
:100FD00051424A411A7085235B00FB1800221A70A7
:100FE0000A23FF33FB1800221A7084235B00FB18CE
:100FF00000221A700823FF33FB1800221A70FB1D11
:10100000FF3300221A70BB1DFF3300221A707B1DB4
:10101000FF333A1812781A703B1DFF3300221A7002
:10102000FB1CFF3301221A70BB1CFF333A181278E5
:101030001A707B1CFF3300221A700023FC22BA189E
:1010400013609823FB18180006231A00002103F0F0
:1010500005FF02F09FFC0300F822BA18136002F0AB
:1010600099FC0300F422BA18136002F093FC030009
:10107000F022BA181360D323FB181B78002B01D081
:10108000062300E00023EC22BA1813602D23E82287
:10109000BA1813603723E422BA181360E323FB184D
:1010A000D3217A1812781A70E223FB187A18127872
:1010B0001A700023DC22BA18136000237B607C4B7B
:1010C000882149005B18DB1900221A70794B5B18E4
:1010D000DB1900221A80D2257C198023DB01764A95
:1010E0001900100003F03AF803002370DB23FB180B
:1010F0007A1912781A70DA23FB187A1912781A7092
:1011000002F048FC0300D422BA18136001F028F85A
:10111000031E09D085235B00FB1801221A7084236B
:101120005B00FB1801221A7002F034FC0300CC268D
:10113000BA191360D2257C198023DB015E4A19009D
:10114000100003F00BF80300237029007A18DB204D
:101150003B1812781B789A4208D03B187A181278FC
:101160001A70BB191B68D422BA181360CC203B1824
:101170001A68D423FB181B68D31A1D2B50D9D2240C
:101180003A19DA217B1812781B789A4248D07B18DA
:101190003A1912781A707B181B78002B40D1A023C3
:1011A000FB181B68EC22B9180B605A23E821791848
:1011B0000B606E23E42179180B60E3243B19BA1805
:1011C0001268511E8A411A70E223FB183A191278EC
:1011D0001A7004003B181B68F022BA18136001F063
:1011E000ADF903001A0001235340DBB2002B17D0E6
:1011F0003B191B68F422BA1813600A23FF33FB184B
:1012000000221A7000F0ACFF031E09D085235B009A
:10121000FB1801221A7084235B00FB1801221A704C
:10122000CB23FB18DA22BA18127851424A411A70BD
:1012300001F084F9031E41D0CA257C199823FB18BC
:10124000180000F0B3FF030023707B191B78012BFB
:101250000FD10A23FF33FB1801221A7085235B008C
:10126000FB1800221A7084235B00FB1801221A70FD
:101270004DE0CA22BB181B78022B03D0BB181B7889
:10128000032B44D10A23FF33FB1800221A70852355
:101290005B00FB1801221A7084235B00FB180122FB
:1012A0001A7034E0DC05000060EA00000014005011
:1012B000F3FEFFFFF0FEFFFF00080050CC243B19B7
:1012C0001A68F4257B191B68D21AA023FB185B68E7
:1012D0009A421CD3D94B00228021180002F05BFFF8
:1012E0003B191B687A1913600A23FF33FB1800228D
:1012F0001A7000F035FF031E09D085235B00FB1830
:1013000001221A7084235B00FB1801221A700C243E
:10131000FF343B191B7801225340DBB2002B2ED047
:10132000CC217B181A68F8203B181B68D31AC44AD2
:10133000934224D97B181B683A1813609F23FB182B
:10134000180001F097FC03001A003B1951424A4172
:101350001A703B191B78002B11D0FB1CFF331B7834
:10136000002B0CD07B1CFF331B78022B07D8BB1C37
:10137000FF3301221A707B1DFF3301221A700C23E8
:10138000FF33FB181B78002B44D07B1DFF331B78E9
:10139000002B3FD001F0D4FE03001A00012353407C
:1013A000DBB2002B36D07B1CFF331B780133FC22D1
:1013B000B9180B60BB181A68A023F91864243B19EC
:1013C0001800FFF778FD3B190E21180001F096FD7B
:1013D000031E0FD17B1CFF331A787B1CFF330132B5
:1013E0001A707B1DFF3300221A703B1DFF33012250
:1013F0001A7098E0BB1CFF3300221A700C23FF33D5
:10140000FB1800221A70CC23FB181B68F822BA18AC
:10141000136088E00C23FF33FB181B78002B00D1EE
:1014200081E084235B00FB181B78002B00D17AE05D
:1014300001F086FE03001A0001235340DBB2002BAB
:1014400071D0DC23F9180B680133C42178180360CC
:10145000C3203C183B001800FFF7B0F903002370CD
:10146000784B88256D005D19EB191C8801F072F826
:1014700003001E00CB257B191D78C4217B181A6838
:10148000A023F9187423F81805969826BB1904931D
:101490000394C3243B191B7802930A24FF343B199D
:1014A0001B780193FB1CFF331B7800932B00FFF785
:1014B0003FFB74203B182421180001F01FFD031E80
:1014C00022D1C42178180368DC22BA181360FB1CEF
:1014D000FF331B78002B0CD0BB1CFF331B78012281
:1014E0005340DBB2002B04D07B181B68FC22BA18D7
:1014F000136084235B00FB1800221A700823FF335B
:10150000FB1801221A700EE0BB1CFF3300221A7078
:101510000C23FF33FB1800221A70CC23FB181B6826
:10152000F822BA1813600C23FF33FB181B78002B2A
:101530004DD03B1DFF331B78002B48D0C2257C19B2
:1015400001F06AFD030023707B191B78012B20D169
:101550003B1DFF3300221A70A023FB189B68180064
:1015600001F0F8FD031E04D1FB1DFF3301221A70A8
:1015700016E2BB1CFF3300221A700C23FF33FB184A
:1015800000221A70CC23FB181B68F822BA181360CB
:1015900006E2C222BB181B78022B04D0BB181B78B2
:1015A000032B00D0FCE13B1DFF3300221A70BB1C53
:1015B000FF3300221A700C23FF33FB1800221A702D
:1015C000CC23FB181B68F822BA181360E8E10C233F
:1015D000FF33FB181B78002B55D00825FF357B19EE
:1015E0001B78002B4FD0C126BC1901F015FD03005C
:1015F0002370BB191B78012B26D17B1900221A708E
:10160000A023FB189B68180001F0A4FD031E04D161
:10161000FB1DFF3301221A70C4E1BB1CFF33002203
:101620001A700C23FF33FB1800221A70CC23FB180E
:101630001B68F822BA181360B4E1C04600040050D9
:1016400087130000F0FEFFFFC122BB181B78022B9E
:1016500004D0BB181B78032B00D0A3E10823FF3371
:10166000FB1800221A70BB1CFF3300221A700C23D7
:10167000FF33FB1800221A70CC23FB181B68F822DA
:10168000BA1813608EE10C23FF33FB181B78002B74
:1016900000D152E1FB1DFF331B78002B00D14CE140
:1016A000C026BC1908257B19180001F0CBFD0300EA
:1016B0002370BB191B78012B00D0E5E0A026BB19D5
:1016C000DB68BC22BA181360FB1DFF3300221A70BE
:1016D000BB23FC18FB1C3A1DB9197819FFF7F4FA63
:1016E00003002370BA22BC18FC2179180A68B919C2
:1016F0007B191800FFF798FB03002370BB23FB182E
:101700001B78002B04D1BA22BB181B78002B34D0D5
:10171000B9217B18BA1CFF3212781A70FB1CFF33F8
:1017200000221A70BB1CFF3300221A70BA23FB1868
:101730001B78002B4FD07B181B7801225340DBB263
:10174000002B48D00623EC22BA1813602D23E82280
:10175000BA1813603723E422BA181360E323FB1886
:1017600001221A70E223FB1801221A70CC23FB1805
:101770001B68F022BA1813602DE0BB1CFF331B78E6
:10178000002B29D07B1CFF331B78022B04D87B1D38
:10179000FF3301221A701FE0BB1CFF3300221A70B6
:1017A0000223EC22BA181360FA23E822BA18136055
:1017B000FA23E422BA181360E323FB1801221A70FB
:1017C000E223FB1801221A70CC23FB181B68F022BD
:1017D000BA18136000E0C046BB23FB181B78002B2F
:1017E00000D1E1E0C54B882252009B18DB191B7821
:1017F000002B21D1A023FB18DB68BC22BA18126889
:101800009A4219D00623EC22BA1813602D23E8223D
:10181000BA1813603723E422BA181360E323FB18C5
:1018200001221A70E223FB1801221A70CC23FB1844
:101830001B68F022BA1813607A68B04B88214900FF
:101840005B18DB191B78A02179184C243819FFF795
:101850009BFA1E2002F0A8F83B191721180001F08E
:101860004DFB031E04D1BB1DFF3301221A709BE008
:101870000C23FF33FB1800221A70CC23FB181B68C3
:10188000F822BA1813608FE0C022BB181B78022B15
:1018900007D0BB181B78032B03D0BB181B78042B75
:1018A00031D1FB1DFF3300221A70BB1CFF331B78A4
:1018B000002B41D07B1CFF331B78022B04D87B1DEF
:1018C000FF3301221A7037E0BB1CFF3300221A706D
:1018D0000223EC22BA181360FA23E822BA18136024
:1018E000FA23E422BA181360E323FB1801221A70CA
:1018F000E223FB1801221A70CC23FB181B68F0228C
:10190000BA18136018E0C023FB181B78052B4BD1C5
:10191000FB1DFF3300221A70BB1CFF3300221A701C
:101920000C23FF33FB1800221A70CC23FB181B6812
:10193000F822BA18136037E036E00C23FF33FB18A7
:101940001B78002B31D0BB1DFF331B78002B2CD014
:10195000B8257C1901F060FB030023707B191B780C
:10196000012B04D1BB1DFF3300221A701DE0B822E9
:10197000BB181B78022B03D0BB181B78032B14D188
:10198000BB1DFF3300221A700C23FF33FB1800220B
:101990001A70CC23FB181B68F822BA18136004E0F5
:1019A000C04602E0C04600E0C046E323FB181B78B7
:1019B000002B38D0E223FB181B78002B03D0E82340
:1019C000FB181B6802E0E423FB181B68B4217A189B
:1019D0001360CC203B181A68F0243B191B68D31AFB
:1019E0007A1812689A421ED83B181B683A1913607D
:1019F000E222BB181B78002B11D0BB1800221A70F2
:101A0000EC22BB181B68013BB9180B60BB181B68A4
:101A1000002B08D1E323FB1800221A7003E0E22315
:101A2000FB1801221A70E323FB181B78002B08D047
:101A3000E223FB181B7832481A00082102F0ABFBA6
:101A400098E0BB1CFF331B78002B06D02C4B0122E7
:101A50000821180002F09FFB8CE00C23FF33FB18D9
:101A60001B78002B4ED085235B00FB181B78002BC6
:101A700048D0CC243B191B68FA22D1001800FEF78D
:101A8000C9FB0B00632B31D93B191B68FA22D1002B
:101A90001800FEF7BFFB0B00C72B0CD93B191B68C6
:101AA000FA22D1001800FEF7B5FB0B001A009623AE
:101AB0005B009A421AD3CC243B191B68FA22D1004E
:101AC0001800FEF7A7FB0B001A00C8235B009A4220
:101AD00018D33B191B68FA22D1001800FEF79AFBB5
:101AE0000B001A00FA235B009A420BD2044B01222E
:101AF0000821180002F04FFB3CE0C046F3FEFFFF58
:101B0000001400500C23FF33FB181B7801225340B4
:101B1000DBB2002B28D0CC243B191B68FA22D10061
:101B20001800FEF777FB0B00632B16D93B191B68D7
:101B3000FA22D1001800FEF76DFB0B00C72B13D95A
:101B40003B191B68FA22D1001800FEF763FB0B005B
:101B50001A0096235B009A4206D2084B0122082104
:101B6000180002F018FB05E0044B002208211800C1
:101B700002F011FB30BFFFF7D7FAC0460014005047
:101B800090B597B000AF10243B19180048231A00F5
:101B9000002103F063F93B00180010231A00002114
:101BA00003F05CF98023DB00180002F011FB3B1905
:101BB00002221A603B1980225200DA603B1940224F
:101BC0001A613B1900229A623B19180002F06CFB63
:101BD000031E01D000F070F83B0007221A603B00A2
:101BE00001225A603B0000229A603B000022DA602A
:101BF0003B000121180002F03DFF031E01D000F060
:101C00005BF8C046BD4617B090BD000090B589B0E6
:101C100000AF0C243B19180014231A00002103F014
:101C20001DF9224BDA6C214B04210A43DA641F4B65
:101C3000DB6C04221340BB60BB681C4BDA6C1B4B93
:101C400020210A43DA64194BDB6C202213407B60AD
:101C50007B68174B00220821180002F09CFA3B1900
:101C60008022D2011A603B1900225A603B190122DE
:101C70009A603B190F4A1900100002F003F9210085
:101C80007B1808221A607B1801225A607B180022F8
:101C90009A607B180022DA607B18054A1900100050
:101CA00002F0F0F8C046BD4609B090BD00100240F9
:101CB000001400500008005080B500AF72B6C04656
:101CC000C046FDE780B586B000AF78607B68FB60FA
:101CD000124B7B6100233B6117E0FA683B69D31824
:101CE0001B781A007B6953407B617A6913001B04DF
:101CF0009B185B009B18DB009B18DB009B185B00AC
:101D00009B187B613B6901333B613B691B2BE4D929
:101D10007B691800BD4606B080BDC046C59D1C81CC
:101D200090B583B000AF78607B681B68144A93421B
:101D30001CD17B685B68012B18D17B689B68002BEA
:101D400014D07B68DB680F4A93420FD97B68DB684D
:101D50000D4A93420AD87B68DC697B681800FFF75C
:101D6000B1FF03009C4201D1012300E000231A1CB3
:101D700001231340DBB21800BD4603B090BDC0463E
:101D80004643594D973A0000E7870C24B0B594B00C
:101D900000AF786028243B19474A1A603B1901229A
:101DA0005A607B681A683B199A607B685A683B19CD
:101DB000DA607B689A683B191A617B68DA683B19BC
:101DC0005A617B681A693B199A613B190022DA61F2
:101DD00018257B19180010231A00002103F03EF883
:101DE0007B1902221A607B190F229A607B1901224B
:101DF000DA6000237B614F23FB1801221A703B1924
:101E00001800FFF75FFF02003B19DA6101F0F2FEF4
:101E1000031E01D000234AE01423FA181823FB18EC
:101E20001100180001F094FF031E03D04F23FB188C
:101E300000221A700023BB641DE0BB6CDB0028226B
:101E4000BA18D1180823FB180822180003F032F83A
:101E5000BB6C1A4A94466344D900BA68FB680120F7
:101E600001F07AFE031E03D04F23FB1800221A70E4
:101E7000BB6C0133BB644F23FB181B78002B02D0D3
:101E8000BB6C032BD9D901F0D9FE4F23FB181B786B
:101E9000002B07D00A4B1800FFF742FF031E01D0AA
:101EA000012300E000231A1C01231340DBB21800B9
:101EB000BD4614B0B0BDC0464643594D000F0001A9
:101EC0000078000880B586B000AFF860B9607A602D
:101ED0003B601A4B7B61FB68002B2AD07B691800A2
:101EE000FFF71EFF031E14D07B699A68FB681A6017
:101EF0007B69DA68FB685A607B691A69FB689A60DB
:101F00007B695A69FB68DA607B699A69FB681A61C8
:101F100010E0FB68BA681A60FB687A685A60FB6870
:101F20003A689A60FB680022DA60FB6800221A6156
:101F300000E0C046BD4606B080BDC046007800083F
:101F4000B0B588B000AF78607B68002B04D07B68A8
:101F50001B69144A934201D000231EE00C257B1913
:101F60007A6813CA13C303CA03C37B1900221A6118
:101F70007B191800FFF70AFF03001A0001235340E2
:101F8000DBB2002B01D0002307E07B680C22BA18DB
:101F900013CA13C303CA03C301231800BD4608B004
:101FA000B0BDC046564F5250B0B58AB000AFF860D1
:101FB000B9607A603B60FB68002B07D0FB6B002B9D
:101FC00004D0FB681B68BA689A4201D0002356E02F
:101FD000FB681B697A689A4209D1FB68DB683A683A
:101FE0009A4204D1FB6B00221A70012347E0FB6880
:101FF000DB683A689A4204D8FB6B01221A7001230D
:102000003DE0BB6B0E2B03D9BB6B1F4A934204D937
:10201000FB6B02221A70012331E014257B19FA6848
:1020200013CA13C303CA03C3BA6B13005B019B1A21
:102030009B009B18DB001A007B195A607B193A68D9
:10204000DA607B197A681A617B191800FFF79EFE27
:1020500003001A0001235340DBB2002B04D0FB6BBA
:1020600003221A7001230AE0FB681422BA1813CA6B
:1020700013C303CA03C3FB6B00221A7001231800A9
:10208000BD460AB0B0BDC046803A090090B589B0DF
:1020900000AF0C243B19180014231A00002102F091
:1020A000DDFE2B4BDA6C2A4B01210A43DA64284B04
:1020B000DB6C01221340BB60BB68254BDA6C244B00
:1020C00002210A43DA64224BDB6C022213407B605C
:1020D0007B68204B00228021180002F05CF83B193D
:1020E00080221A603B1901225A603B1900229A6033
:1020F0003B190022DA603B19164A1900100001F062
:10210000C1FEC0235901A023DB050122180002F003
:1021100042F83B19C02252011A603B1911225A6041
:102120003B1900229A603B190022DA603A19A02379
:10213000DB051100180001F0A5FE074B00221A7004
:10214000064B00221A70C046BD4609B090BDC0467D
:102150000010024000040050BC000020C400002019
:1021600080B500AF0D4B1B78002B01D0012311E08F
:102170000B4B01228021180002F00DF8074B0122C1
:102180001A7001F007FC0200064B1A60064B002291
:102190001A7000231800BD4680BDC046BC00002058
:1021A00000040050C0000020C400002090B58BB097
:1021B00000AF78607B68002B03D0D14B1B78002BDD
:1021C00001D1002398E1CE4B1B78012B00D082E097
:1021D00001F0E0FB0200CB4B1B68D31A632B01D844
:1021E000002389E100F0D2FBC74B180000F0CEF9C4
:1021F00003001A0001235340DBB2002B0DD0C34B68
:102200001B78002B02D0C14B1A7800E00122C04B92
:102210001A7000F0A9F902236EE1012001F0C4FB5D
:102220001823FB180921180000F020FA03001A00F7
:1022300001235340DBB2002B06D0B54B02221A70AB
:1022400000F092F9022357E118243B19180000F01E
:1022500031FC03001A0001235340DBB2002B17D1DD
:102260003B190333180000F025FC03001A0001237A
:102270005340DBB2002B0BD13B190633180000F0A2
:1022800019FC03001A0001235340DBB2002B06D0D7
:102290009F4B03221A7000F067F903232CE19D4B3A
:1022A000180000F073F903001A0001235340DBB259
:1022B000002B06D0964B04221A7000F055F9022329
:1022C0001AE18F4B02221A7001F064FB02008D4B61
:1022D0001A60002310E101F05DFB0200894B1B68CE
:1022E000D31A8D4A934201D8002305E18B4B180085
:1022F00000F04CF903001A0001235340DBB2002B1D
:1023000006D0834B05221A7000F02EF90223F3E069
:10231000012001F049FB1423FB180321180000F0F1
:10232000A5F903001A0001235340DBB2002B06D0AD
:10233000774B06221A7000F017F90223DCE0142311
:10234000FB18180000F0B6FB03001A0001235340ED
:10235000DBB2002B06D06E4B07221A7000F004F996
:102360000323C9E014217B181B781BB21B021AB28D
:102370007B185B781BB213431AB226217B181A8094
:102380007B181B885B055B0D11D101F003FB02007C
:102390005C4B1B68D31A624A934206D95C4B0822F5
:1023A0001A7000F0E1F80223A6E00023A4E05D4BE0
:1023B000180000F0EBF803001A0001235340DBB2D1
:1023C000002B06D0524B09221A7000F0CDF80223E0
:1023D00092E0012001F0E8FA0823FB180921180017
:1023E00000F044F903001A0001235340DBB2002B34
:1023F00006D0474B0A221A7000F0B6F802237BE0A1
:1024000008243B19180000F055FB03001A000123B3
:102410005340DBB2002B17D13B190333180000F0F7
:1024200049FB03001A0001235340DBB2002B0BD100
:102430003B190633180000F03DFB03001A0001238E
:102440005340DBB2002B06D0314B0B221A7000F048
:102450008BF8032350E008217B181B781BB21B026A
:102460001AB27B185B781BB213431BB29AB27B681B
:102470001A807B18DB781BB21B021AB27B181B79FF
:102480001BB213431AB224203B181A807B189B7985
:102490001BB21B021AB27B18DB791BB213431AB2B0
:1024A00022243B191A803B181B881F4A53431F4A9A
:1024B000944663441E491800FDF7B0FE03009BB22A
:1024C0001C4A944663449BB21AB27B685A803B19FB
:1024D0001B88194A5343154A94466344144918000B
:1024E000FDF712FE03009AB27B689A8000F03CF878
:1024F000074B00221A7001231800BD460BB090BD97
:10250000BC000020C000002082360000C500002072
:10251000C40000209D21000087130000B8E40000E3
:102520006F17000005EC00005C440000FF7F000016
:10253000FFFF00006CEEFFFF1027000080B500AF2A
:10254000034B1B785A1E9341DBB21800BD4680BD79
:10255000BC00002080B500AF024B1B781800BD46C0
:1025600080BDC046C400002080B500AF054B0022EE
:102570008021180001F00FFE034B00221A70C046A4
:10258000BD4680BD00040050BC00002080B582B074
:1025900000AF0200BB1D1A80334B00221A7000F0FE
:1025A000BAF803001A0001235340DBB2002B18D005
:1025B000A023DB051A6980235B01134003D12A4B5A
:1025C0000C221A7009E0A023DB051A6980231B0185
:1025D000134002D1244B0D221A7000F0CBF80023D7
:1025E0003DE0C42000F0DDF803001A000123534051
:1025F000DBB2002B06D01C4B0E221A7000F0BAF88A
:1026000000232CE0BB1D1B881B0A9BB2DBB2180009
:1026100000F0C7F803001A0001235340DBB2002B7F
:1026200006D0114B0F221A7000F0A4F8002316E018
:10263000BB1D1B88DBB2180000F0B3F803001A00C2
:1026400001235340DBB2002B06D0074B10221A7037
:1026500000F090F8002302E000F08CF8012318004D
:10266000BD4602B080BDC046C5000020B0B584B0F4
:1026700000AF78600A00FB1C1A707B68002B0CD03E
:10268000FB1C1B78002B08D000F045F803001A0053
:1026900001235340DBB2002B03D000F06BF8002382
:1026A00035E0C52000F07DF803001A0001235340F7
:1026B000DBB2002B03D000F05DF8002327E00F23EE
:1026C000FB1800221A7018E0FB1C1B78013BDBB2E0
:1026D0000F257A1912789A429B415B42D9B27B1935
:1026E0001B787A68D418080000F0C7F8030023703C
:1026F0007B191A787B1901321A700F23FA18FB1C08
:1027000012781B789A42DFD300F034F801231800C6
:10271000BD4604B0B0BD80B500AFA023DB0580226C
:1027200012019A6100F010F903001A0001235340CE
:10273000DBB2002B01D0002319E0A023DB051A69CE
:1027400080231B01134001D1002310E000F044F965
:10275000A023DB05802212059A6100F03DF9A02339
:10276000DB05802252059A6100F036F9012318003A
:10277000BD4680BD80B500AFA023DB0580221205D9
:102780009A6100F029F900F0DFF800F025F9A023A4
:10279000DB05802212019A6100F01EF9C046BD4699
:1027A00080BD90B585B000AF0200FB1D1A700F23ED
:1027B000FB1880221A702FE0FB1D0F22BA181B781D
:1027C00012781340DBB2002B05D0A023DB0580225A
:1027D00012019A6104E0A023DB05802212059A61B0
:1027E00000F0FAF800F0B0F803001A00012353409B
:1027F000DBB2002B01D000233BE000F0EDF8A0237A
:10280000DB05802252059A6100F0E6F80F22BB1822
:10281000BA18127852081A700F23FB181B78002B75
:10282000CAD1A023DB05802212019A6100F0D4F8FE
:1028300000F08AF803001A0001235340DBB2002B9A
:1028400001D0002315E000F0C7F8A023DB051A69CA
:1028500080231B011A400E243B1951424A411A7031
:10286000A023DB05802252059A6100F0B5F83B19E0
:102870001B781800BD4605B090BD90B585B000AF7F
:102880000200FB1D1A700F23FB1800221A70A023F0
:10289000DB05802212019A610E23FB1800221A70B8
:1028A00025E00F243A193B191B78DB18137000F050
:1028B00093F800F049F800F08FF8A023DB051A69BF
:1028C00080231B01134005D03B193A1912780121CE
:1028D0000A431A70A023DB05802252059A6100F09A
:1028E0007BF80E217B181A787B1801321A700E23A0
:1028F000FB181B78072BD4D9FB1D1B78002B05D0A8
:10290000A023DB05802212059A6104E0A023DB05E9
:10291000802212019A6100F05FF800F015F800F0D3
:102920005BF8A023DB05802252059A61A023DB051A
:10293000802212019A6100F04FF80F23FB181B78D8
:102940001800BD4605B090BD80B582B000AF01F063
:1029500021F803007B60A023DB05802252019A61ED
:1029600008E001F017F802007B68D31A012B01D9A7
:10297000002307E0A023DB051A6980235B011340D5
:10298000EFD001231800BD4602B080BD80B582B0F3
:1029900000AFA023DB05802212019A61FB1D0022FB
:1029A0001A700FE0A023DB05802252059A6100F027
:1029B00013F8FFF7C9FF00F00FF8FB1D1A78FB1D95
:1029C00001321A70FB1D1B78082BEBD9FFF7D2FEE2
:1029D000C046BD4602B080BD80B582B000AFFB1DD1
:1029E00000221A7007E0C046FB1D1B78DBB20133E2
:1029F000DAB2FB1D1A70FB1D1B78DBB2132BF2D968
:102A0000C046C046BD4602B080BD80B584B000AFB0
:102A100078600A00FB1C1A700F23FB18FF221A7043
:102A20000E23FB1800221A7036E00E23FB181B78C9
:102A30007A68D31819780F22BB18BA1812784A404E
:102A40001A700D23FB1800221A701AE00F217B1850
:102A50001B785BB2002B08DA7B181B78DB18DAB224
:102A60007B1831214A401A7005E00F23FA18FB1831
:102A70001B78DB1813700D217B181A787B18013234
:102A80001A700D23FB181B78072BDFD90E217B183A
:102A90001A787B1801321A700E23FA18FB1C127870
:102AA0001B789A42C1D30F23FB181B781800BD4630
:102AB00004B080BD80B582B000AF78607B68022131
:102AC0001800FFF7A2FF03001A007B6802331B788F
:102AD000D31A5A425341DBB21800BD4602B080BD42
:102AE00080B582B000AF0F4B9A6D0E4B8021490527
:102AF0000A439A650B4B9A6D80235B0513407B60FC
:102B00007B68084B1A6E074B01210A431A66054B76
:102B10001B6E012213403B603B68C046BD4602B0BD
:102B200080BDC0460010024080B500AFC046FDE742
:102B300080B500AFC046FDE780B500AFC046BD46DA
:102B400080BD80B500AFC046BD4680BD80B500AF3A
:102B500000F00EFFC046BD4680BD000090B589B0B4
:102B600000AF0C243B19180014231A00002102F0B6
:102B700075F93C4BDA6C3B4B01210A43DA64394B63
:102B8000DB6C01221340BB60BB68364BDA6C354B03
:102B900002210A43DA64334BDB6C022213407B6070
:102BA0007B68A023DB0501220821180001F0F3FA5D
:102BB00080235900A023DB050122180001F0EBFA65
:102BC000A023DB0500222021180001F0E4FA802375
:102BD0005B0025480022190001F0DDFA3B19942220
:102BE00052001A603B1901225A603B1900229A6078
:102BF0003B190222DA603A19A023DB051100180004
:102C000001F040F921007B18802252001A600C006C
:102C10003B19154A1900100001F034F93B198222C2
:102C20001A603B1900225A603B1900229A603A1937
:102C3000A023DB051100180001F024F93B19022242
:102C40001A603B19084A1900100001F01BF9074BE4
:102C500000221A70064B00221A70C046BD4609B009
:102C600090BDC0460010024000040050C600002085
:102C7000CC00002080B584B000AF78600F23FB1833
:102C800000221A708C4B00221A708C4B00221A7092
:102C900080235900A023DB050022180001F07BFAF5
:102CA000022000F081FE80235900A023DB050122D1
:102CB000180001F070FA0A2000F076FE00F096FB92
:102CC00003001A0001235340DBB2002B01D0012383
:102CD000EDE07B4B01221900802000F0FBFB03009C
:102CE0001A0001235340DBB2002B00D0BBE0754B30
:102CF00001221900962000F0EDFB03001A000123C9
:102D00005340DBB2002B00D0ADE06F4B0422190022
:102D1000972000F0DFFB03001A0001235340DBB2D1
:102D2000002B00D09FE0694B012219009D2000F08C
:102D3000D1FB03001A0001235340DBB2002B00D06B
:102D400091E0634B01221900892000F0C3FB0300CE
:102D50001A0001235340DBB2002B00D083E05D4B0F
:102D600002221900982000F0B5FB03001A0001238D
:102D70005340DBB2002B00D075E0574B0122190005
:102D80008A2000F0A7FB03001A0001235340DBB2A6
:102D9000002B68D1514B04221900862000F09AFBC9
:102DA00003001A0001235340DBB2002B5BD14C4BD4
:102DB000022219008F2000F08DFB03001A0001236E
:102DC0005340DBB2002B4ED1464B042219008B201E
:102DD00000F080FB03001A0001235340DBB2002BFC
:102DE00041D1414B04221900952000F073FB0300F0
:102DF0001A0001235340DBB2002B34D13B4B02229B
:102E000019008E2000F066FB03001A0001235340D6
:102E1000DBB2002B27D13649E823DB000222180061
:102E200000F0DAFB03001A0001235340DBB2002B51
:102E300019D1304B08221900082000F04BFB030089
:102E40001A0001235340DBB2002B0CD12A4B022283
:102E50001900022000F03EFB03001A00012353403A
:102E6000DBB2002B01D0012321E00F23FB18180057
:102E700000F086FC03001A0001235340DBB2002B54
:102E800001D0012313E07B68002B04D00F23FB1833
:102E90001A787B681A700F22BB181B78002B03D09E
:102EA000BB181B78FF2B01D1022300E00023180080
:102EB000BD4604B080BDC046C6000020CC00002046
:102EC000F84E0008FC4E0008004F0008044F0008B0
:102ED000084F00080C4F0008104F0008144F00085E
:102EE000184F00081C4F0008204F0008244F00080E
:102EF000284F00082C4F0008344F000880B584B0DC
:102F000000AF78600A00FB1C1A7008217B180022B1
:102F10001A707B180C225A707B1800229A707B184A
:102F2000FA1C1278DA707B1801221A717B180022C1
:102F30005A717B68002B0BD0FB1C1B78002B07D031
:102F4000FB1C1B78402B03D82D4B1B78002B01D08A
:102F5000032350E00823FB18062219008C2000F000
:102F6000B9FA03001A0001235340DBB2002B34D11D
:102F7000FB1C1A787B681900002000F079FB030025
:102F80001A0001235340DBB2002B26D11D4B08222F
:102F90001900082000F09EFA03001A000123534094
:102FA000DBB2002B19D1184B02221900022000F0CD
:102FB00091FA03001A0001235340DBB2002B0CD11D
:102FC000124B03221900832000F084FA03001A0038
:102FD00001235340DBB2002B01D001230BE000F0B2
:102FE000D9FC02000A4B1A60054B01221A70094BEA
:102FF00001221A7000231800BD4604B080BDC046EF
:10300000C6000020384F0008404F0008444F000819
:10301000C8000020CC00002080B582B000AF434B38
:103020001B7801225340DBB2002B03D1404B1B78AD
:10303000012B01D0002375E000F0ACFC02003D4BF9
:103040001B68D21AFB1D3C499142924152421A70B0
:103050003A4B0221180001F081F8031E08D1FB1D34
:103060001B7801225340DBB2002B01D0002359E032
:103070003B0002221900122000F06CFA03001A0033
:1030800001235340DBB2002B07D0284B00221A70DB
:10309000274B00221A70032344E03B001B781BB22D
:1030A0001B021AB23B005B781BB213431AB23B1DE2
:1030B0001A803B1D1B88002B14D03B0002221900F4
:1030C000022000F007FA03001A0001235340DBB28C
:1030D000002B07D0154B00221A70154B00221A70D6
:1030E00003231FE03B1D1B880122134007D00F4B19
:1030F00000221A700E4B00221A70012312E03B1DB1
:103100001A8880239B00134003D1FB1D1B78002BE2
:1031100007D0064B00221A70054B00221A700223BA
:1031200000E000231800BD4602B080BDC6000020AC
:10313000CC000020C8000020AB0D000000040050AF
:1031400080B500AF024B1B781800BD4680BDC0465D
:10315000C600002090B587B000AF78600C23FB1844
:10316000324A1168196092889A807B68002B07D0D8
:103170007B682F4A934203D82E4B1B78002B01D03B
:1031800003234FE07B689B017B617B691B0CDAB2F8
:1031900008243B191A707B691B0ADAB23B195A7072
:1031A0007B69DAB23B199A700C23FB1806221900CE
:1031B0008C2000F08FF903001A0001235340DBB28A
:1031C000002B26D11C4B08221900082000F082F9A0
:1031D00003001A0001235340DBB2002B19D1174B17
:1031E00002221900022000F075F903001A000123E1
:1031F0005340DBB2002B0CD13B1903221900822073
:1032000000F068F903001A0001235340DBB2002BE1
:1032100001D0012306E0074B01221A70084B02225D
:103220001A7000231800BD4607B090BDF04E00088C
:1032300060EA0000C6000020484F0008504F000818
:10324000CC00002080B584B000AF7860654B1B785F
:1032500001225340DBB2002B03D1634B1B78022BBE
:1032600001D00023BAE07B68002B0DD00C23FB18A3
:1032700002221900122000F06DF903001A00012348
:103280005340DBB2002B07D0564B00221A70564B2E
:1032900000221A700523A1E00C217B181B781BB2B9
:1032A0001B021AB27B185B781BB213431AB20E21B1
:1032B0007B181A807B181B88002B01D100238DE01E
:1032C0000C23FB1802221900022000F003F903006E
:1032D0001A0001235340DBB2002B07D0414B0022E0
:1032E0001A70414B00221A70052377E00E23FB1859
:1032F0001B884022134007D03A4B00221A703A4BE9
:1033000000221A70032369E00E23FB181B88202279
:10331000134007D0334B00221A70334B00221A702F
:1033200004235BE00E23FB181A8880239B001340C4
:1033300007D02C4B00221A702B4B00221A7002234C
:103340004CE00E23FB181B880222134001D10023FE
:1033500044E00823FB1802221900132000F0FAF8B9
:1033600003001A0001235340DBB2002B07D01D4B92
:1033700000221A701C4B00221A7005232EE008232D
:10338000FB1819787B68402299547B6840229B5C2B
:10339000402B03D97B684022402199540823FB1815
:1033A000587879687B6840229B5C1A0000F0A3F98A
:1033B00003001A0001235340DBB2002B07D0094B56
:1033C00000221A70084B00221A70052306E0054BF4
:1033D00000221A70044B00221A7001231800BD4607
:1033E00004B080BDC6000020CC00002080B582B0B3
:1033F00000AF00F0CFFA03007B6008E000F0CAFAEB
:1034000002007B68D31A632B01D9002309E0A023B3
:10341000DB050221180000F0A1FE0300012BEDD016
:1034200001231800BD4602B080BD000080B584B005
:1034300000AF0200FB1D1A700F23FB1800221A7048
:103440000E23FB1880221A7035E0FB1D0E22BA18DD
:103450001B7812781340DBB2002B04D01C4B802267
:1034600052009A6103E01A4B802252049A6100F0E4
:10347000BFF9A023DB0520229A6100F0B9F9A0234F
:10348000DB051B698022134008D00F22BB18B91836
:103490000E22BA18097812780A431A70A023DB05A5
:1034A000802292039A6100F0A3F90E22BB18BA1889
:1034B000127852081A700E23FB181B78002BC4D107
:1034C0000F23FB181B781800BD4604B080BDC04612
:1034D0000004005090B585B000AF39601100FB1DAD
:1034E000021C1A70BB1D0A1C1A70FFF77FFF030035
:1034F0001A0001235340DBB2002B01D0002325E04A
:1035000000F063F9FB1D1B781800FFF78FFF0F23F6
:10351000FB1800221A700DE00F243B191B783A6843
:10352000D3181B781800FFF781FF3B191A783B1955
:1035300001321A700F23FA18BB1D12781B789A42B9
:10354000EAD300F04CF9FFF751FF03001800BD4625
:1035500005B090BDB0B584B000AF39601100FB1D5F
:10356000021C1A70BB1D0A1C1A70FFF73FFF0300F4
:103570001A0001235340DBB2002B01D0002327E0C7
:1035800000F023F9FB1D1B781800FFF74FFF002008
:10359000FFF74CFF0F23FB1800221A700EE00F25D7
:1035A0007B191B783A68D4180020FFF73FFF03000F
:1035B00023707B191A787B1901321A700F23FA18BD
:1035C000BB1D12781B789A42E9D300F008F9012359
:1035D0001800BD4604B0B0BD90B585B000AF3960ED
:1035E0001100BB1D021C1A807B1D0A1C1A70FFF7FC
:1035F000FDFE03001A0001235340DBB2002B01D073
:10360000002331E000F0E1F80D20FFF70FFFBB1DB4
:103610001B881B0A9BB2DBB21800FFF707FFBB1D1C
:103620001B88DBB21800FFF701FF0F23FB180022F5
:103630001A700DE00F243B191B783A68D3181B78D9
:103640001800FFF7F3FE3B191A783B1901321A7084
:103650000F23FA187B1D12781B789A42EAD300F0E8
:10366000BEF8FFF7C3FE03001800BD4605B090BDCD
:1036700090B585B000AF39601100FB1D021C1A70B7
:10368000BB1D0A1C1A70FFF7B1FE03001A000123CC
:103690005340DBB2002B01D0002328E000F095F866
:1036A0000E20FFF7C3FEFB1D1B781800FFF7BEFEC0
:1036B0000F23FB1800221A700DE00F243B191B7812
:1036C0003A68D3181B781800FFF7B0FE3B191A7838
:1036D0003B1901321A700F23FA18BB1D12781B78A0
:1036E0009A42EAD300F07BF8FFF780FE030018004F
:1036F000BD4605B090BDB0B584B000AF39601100D3
:10370000FB1D021C1A70BB1D0A1C1A70FFF76EFE0F
:1037100003001A0001235340DBB2002B01D0002329
:103720002AE000F052F81E20FFF780FEFB1D1B78F8
:103730001800FFF77BFE0020FFF778FE0F23FB1831
:1037400000221A700EE00F257B191B783A68D418F6
:103750000020FFF76BFE030023707B191A787B199A
:1037600001321A700F23FA18BB1D12781B789A4287
:10377000E9D300F034F801231800BD4604B0B0BD11
:1037800080B582B000AF78607B68002B08D0FFF76F
:103790002DFE03001A0001235340DBB2002B01D0A1
:1037A00000230EE000F011F8C020FFF73FFE0020DC
:1037B000FFF73CFE03001A007B681A7000F00FF858
:1037C00001231800BD4602B080BD80B500AFA02324
:1037D000DB05802212039A61C046BD4680BD80B5DC
:1037E00000AFA023DB0508229A61C046BD4680BD1C
:1037F00080B500AFC046C046C046C046C046BD46C4
:1038000080BD000080B582B000AF124B802212054F
:103810009A60114A8023D3587B600F4B1B6A3B6030
:103820007A6880235B02134010D03B68FF2213406C
:10383000CC2B0BD03B68FF221340AA2B06D0064BA3
:103840001A68054B8021C9020A431A60C046BD466A
:1038500002B080BD00ED00E0002002400D4885462A
:10386000FFF7D0FF0C480D490D4A002302E0D45861
:10387000C4500433C4188C42F9D30A4A0A4C0023BA
:1038800001E013600432A242FBD301F0EFFAFDF72E
:1038900043FBFEE7003000200000002094000020E1
:1038A000A44F000894000020F0000020FEE780B53F
:1038B00082B000AFFB1D00221A70032000F00EF84A
:1038C000031E03D0FB1D01221A7001E0FFF708F967
:1038D000FB1D1B781800BD4602B080BD90B585B0B9
:1038E00000AF78600F23FB1800221A701D4B1B7865
:1038F000002B2BD01C4B1C681A4B1B781900FA2389
:103900009800FCF701FC030019002000FCF7FCFB09
:103910000300180000F013F9031E12D17B68032B7B
:103920000AD8796801235B420022180000F0F2F8FF
:103930000E4B7A681A600DE00F23FB1801221A70F3
:1039400008E00F23FB1801221A7003E00F23FB1875
:1039500001221A700F23FB181B781800BD4605B012
:1039600090BDC04608000020000000200400002098
:1039700080B500AF054B1B781A00054B1B68D218A9
:10398000034B1A60C046BD4680BDC04608000020FB
:10399000D000002080B500AF024B1B681800BD4668
:1039A00080BDC046D000002080B584B000AF7860F4
:1039B000FFF7F0FF0300BB607B68FB60FB6801332F
:1039C00005D00A4B1B781A00FB689B18FB60C046A9
:1039D000FFF7E0FF0200BB68D31AFA689A42F7D8F3
:1039E000C046C046BD4604B080BDC04608000020A9
:1039F00090B583B000AF02003960FB1D1A70FB1D4B
:103A00001B787F2B28D82F4AFB1D1B785BB29B08A5
:103A1000C0339B009B58FA1D1278110003220A4004
:103A2000D200FF2191400A00D2431A4011003B68A6
:103A30009B01FF221A40FB1D1B7818000323034043
:103A4000DB009A401F48FB1D1B785BB29B080A43B2
:103A5000C0339B001A5031E01B4AFB1D1B78190034
:103A60000F230B40083B9B0806339B00D3180433FD
:103A70001B68FA1D1278110003220A40D200FF21B0
:103A800091400A00D2431A4011003B689B01FF227B
:103A90001A40FB1D1B78180003230340DB009A40EB
:103AA0000948FB1D1B781C000F232340083B9B0883
:103AB0000A4306339B00C31804331A60C046BD4650
:103AC00003B090BD00E100E000ED00E080B582B001
:103AD00000AF78607B685A1E80235B049A4201D352
:103AE000012310E00A4B7A68013A5A6001235B42D5
:103AF00003211800FFF77CFF054B00229A60044B5E
:103B000007221A6000231800BD4602B080BDC046DF
:103B100010E000E080B584B000AFB9607A600F219A
:103B20007B18021C1A70BA687B181B785BB21100F4
:103B30001800FFF75DFFC046BD4604B080BD80B5EC
:103B400082B000AF78607B681800FFF7BFFF03000A
:103B50001800BD4602B080BDB0B586B000AFF860B9
:103B6000B9603A607B60214B1B78012B01D10223A5
:103B700038E01E4B01221A701C4B00225A60172598
:103B80007C19FA239B00180000F074F803002370DE
:103B90007B191B78002B1FD1FB68012B06D13A68DB
:103BA0007B68B968080000F0B3F805E03A68BB68C4
:103BB0001100180001F094F91723FC18FA239B0058
:103BC000180000F057F803002370094B5A69FB688E
:103BD000D943074B0A405A61044B00221A7017233D
:103BE000FB181B781800BD4606B0B0BDD4000020FD
:103BF0000020024080B582B000AFFB1D00221A7089
:103C00000B4B5B69002B0CDA094B0A4A9A60084B94
:103C1000094A9A60064B5B69002B02DAFB1D012200
:103C20001A70FB1D1B781800BD4602B080BDC0464F
:103C30000020024023016745AB89EFCD80B582B0FB
:103C400000AFFB1D01221A70094B5A69084B8021F5
:103C500009060A435A61064B5B69002B02DAFB1D19
:103C600000221A70FB1D1B781800BD4602B080BDF3
:103C70000020024080B584B000AF7860FFF78AFE74
:103C800002007B689B18FB6080235B02BB6007E03F
:103C9000FFF780FE0200FB68934201D803232AE06D
:103CA000174B1B69BA681340F2D1154B1B69154AB3
:103CB0001340BB60124B144A1A61BB68002B04D03E
:103CC000124BBA685A60012315E0FFF763FE020049
:103CD0007B689B18FB6007E0FFF75CFE0200FB6857
:103CE000934201D8032306E0054B1A698023DB02C7
:103CF0001340F1D100231800BD4604B080BDC0467A
:103D000000200240FA830000FB830000D400002062
:103D1000B0B584B000AFF8603A607B600B4B5A6975
:103D20000A4B01210A435A61FB683A681A60BFF3E3
:103D30006F8FC0467B681C0000231D00FB680433A6
:103D400022001A60C046BD4604B0B0BD002002404B
:103D5000B0B584B000AF78603960324B1B78012B6E
:103D600001D1022359E02F4B01221A702D4B002262
:103D70005A600F257C19FA239B001800FFF77AFF81
:103D8000030023702C003B191B78002B3FD17B686C
:103D900001225A607B681B68042B0AD100F046F8A8
:103DA0003C19FA239B001800FFF764FF03002370FF
:103DB0002DE03B68012252421A607B689B68BB6021
:103DC00017E0BB68180000F041F80F257C19FA23B2
:103DD0009B001800FFF74EFF030023707B191B7830
:103DE000002B03D03B68BA681A600AE0BB68013355
:103DF000BB607B689A687B68DB68D318BA689A42B4
:103E0000DFD3094B5A69084B02218A435A61054B9B
:103E100000221A700F23FB181B781800BD4604B04F
:103E2000B0BDC046D40000200020024080B500AFE5
:103E3000044B5A69034B04490A435A61C046BD46C4
:103E400080BDC046002002400400010080B584B05F
:103E500000AF7860084B5B69084A1340FB607B68E1
:103E6000DA00FB681A43044B05490A435A61C0460D
:103E7000BD4604B080BDC0460020024007FCFFFFE5
:103E80000200010080B586B000AF78603960002381
:103E90007B614DE13B681B6801217A6991400A0012
:103EA0001340FB60FB68002B00D13EE13B685B6880
:103EB00003221340012B05D03B685B6803221340AB
:103EC000022B30D17B689B683B617B695B000322DE
:103ED0009A401300DA433B6913403B613B68DA6860
:103EE0007B695B009A4013003A6913433B617B682E
:103EF0003A699A607B685B683B6101227B699A4002
:103F00001300DA433B6913403B613B685B681B0964
:103F100001221A407B699A4013003A6913433B61BE
:103F20007B683A695A603B685B6803221340032B45
:103F300017D07B68DB683B617B695B0003229A409A
:103F40001300DA433B6913403B613B689A687B6925
:103F50005B009A4013003A6913433B617B683A69FE
:103F6000DA603B685B6803221340022B23D17B6934
:103F7000DA087B6808329200D3583B617B690722DC
:103F800013409B000F229A401300DA433B69134011
:103F90003B613B681A697B6907210B409B009A4093
:103FA00013003A6913433B617B69DA087B68083286
:103FB00092003969D1507B681B683B617B695B006B
:103FC00003229A401300DA433B6913403B613B688C
:103FD0005B6803221A407B695B009A4013003A69D0
:103FE00013433B617B683A691A603B685A68C02397
:103FF0009B02134000D198E0534A7B699B08183319
:104000009B009B583B617B6903221340DB000F221E
:104010009A401300DA433B6913403B617A68A0235E
:10402000DB059A4219D07B68484A934213D07B68DB
:10403000474A93420DD07B68464A934207D07B683B
:10404000454A934201D1052308E0062306E00323F5
:1040500004E0022302E0012300E000237A69032147
:104060000A40D20093403A6913433B6136497B6969
:104070009B0818339B003A695A50334B1B683B61CD
:10408000FB68DA433B6913403B613B685A68802315
:104090005B03134003D03A69FB6813433B612A4B2F
:1040A0003A691A60284B5B683B61FB68DA433B69FD
:1040B00013403B613B685A6880239B03134003D045
:1040C0003A69FB6813433B611F4B3A695A601E4AC9
:1040D0008423D3583B61FB68DA433B6913403B615F
:1040E0003B685A6880239B02134003D03A69FB68FF
:1040F00013433B61144984223B698B50124A80234D
:10410000D3583B61FB68DA433B6913403B613B6832
:104110005A6880235B02134003D03A69FB6813435B
:104120003B61094980223B698B507B6901337B618C
:104130003B681A687B69DA40131E00D0AAE6C046C5
:10414000C046BD4606B080BD0018024000040050C5
:1041500000080050000C00500014005080B584B0DE
:1041600000AF78600A00BB1C1A807B681B69BA1C10
:104170001288134004D00F23FB1801221A7003E0A9
:104180000F23FB1800221A700F23FB181B7818004E
:10419000BD4604B080BD80B582B000AF7860080035
:1041A0001100BB1C021C1A807B1C0A1C1A707B1C91
:1041B0001B78002B04D0BB1C1A887B689A6103E033
:1041C000BB1C1A887B689A62C046BD4602B080BD9F
:1041D00080B584B000AF78607A6880239B009A42F3
:1041E00037D1274B1A68C023DB001A4080239B007D
:1041F0009A4240D0224B1B68224A1A40204B802111
:1042000089000A431A60204B1B68322253431F491E
:104210001800FBF779FF03000133FB6002E0FB6845
:10422000013BFB60164B5A698023DB001A40802358
:10423000DB009A4202D1FB68002BF0D1104B5A6987
:104240008023DB001A408023DB009A4213D1032332
:1042500012E00B4B1A68C023DB001A408023DB00FE
:104260009A4208D0064B1B68064A1A40044B80212C
:10427000C9000A431A6000231800BD4604B080BD7F
:1042800000700040FFF9FFFF0000002040420F00D7
:1042900080B500AF034B1A68C023DB001340180041
:1042A000BD4680BD00700040B0B588B000AF7860FA
:1042B000C84B9B6838221340BB61C64BDB680322A6
:1042C00013407B617B681B681022134000D1EEE035
:1042D000BB69002B07D0BB69182B00D093E07B692A
:1042E000012B00D08FE0BB4B1B680222134006D08D
:1042F0007B68DB69002B02D1012300F0AEFB7B68F9
:104300005A6AB44B1B6808210B4004D0B14B1B68A0
:10431000F0210B4005E0AF499423CB581B09F02155
:104320000B40934225D27B685B6A180000F02AFD9F
:10433000031E02D0012300F090FBA64B1A68A54B88
:1043400008210A431A60A34B1B68F022934319000B
:104350007B685A6A9F4B0A431A609E4B5B689E4A71
:10436000134019007B681B6A1A029A4B0A435A6071
:1043700027E0984B1A68974B08210A431A60954B1F
:104380001B68F022934319007B685A6A914B0A43D9
:104390001A60904B5B68904A134019007B681B6A57
:1043A0001A028C4B0A435A60BB69002B09D17B6807
:1043B0005B6A180000F0E6FC031E02D0012300F047
:1043C0004CFB00F043FC0100824B9B681B0A0F2250
:1043D0001340824AD35C1A001F2313400A00DA40BC
:1043E0007F4B1A607F4B1B680F257C191800FFF765
:1043F00075FA030023707B191B78002B56D07B19AC
:104400001B7800F02AFB7B68DB69002B34D0714BF2
:104410001A68704B01210A431A60FFF7BBFA0300C8
:104420003B6108E0FFF7B6FA02003B69D31A022BA2
:1044300001D9032311E3674B1B6802221340F1D01B
:10444000644B1A68634B08210A431A60614B1B686E
:10445000F022934319007B685A6A5E4B0A431A6044
:104460005C4B5B685C4A134019007B681B6A1A024C
:10447000584B0A435A601AE0564B1A68554B0121B3
:104480008A431A60FFF786FA03003B6108E0FFF7F2
:1044900081FA02003B69D31A022B01D90323DCE223
:1044A0004C4B1B6802221340F1D100E0C0467B68F0
:1044B0001B680122134000D165E0BB69102B05D0B9
:1044C000BB69182B0ED17B69032B0BD1414B1A68AA
:1044D00080239B02134055D07B685B68002B51D131
:1044E0000123BAE27B685A6880235B029A4207D1B3
:1044F000384B1A68374B802149020A431A6013E08F
:104500007B685A68A023DB029A4207D1314B1A68B4
:10451000304BA021C9020A431A6005E02D4B1A68EE
:104520002C4B31490A401A607B685B68002B14D021
:10453000FFF730FA03003B6108E0FFF72BFA0200B7
:104540003B69D31A642B01D9032386E2214B1A68F5
:1045500080239B021340F0D015E0FFF71BFA030005
:104560003B6108E0FFF716FA02003B69D31A642B9F
:1045700001D9032371E2174B1A6880239B02134071
:10458000F0D100E0C0467B681B680222134000D1D6
:1045900073E0BB69082B05D0BB69182B28D17B6958
:1045A000022B25D10B4B1A688023DB00134005D06A
:1045B0007B68DB68002B01D101234EE2054B5B6871
:1045C0000A4A134019007B681B691A06014B0A430B
:1045D0005A6052E000100240FF00FFFF544F0008F5
:1045E0000000002004000020FFFFFAFFFFFFFF8013
:1045F0007B68DB68002B26D0C74B1A68C64B80212E
:1046000049000A431A60FFF7C5F903003B6108E05F
:10461000FFF7C0F902003B69D31A022B01D903232B
:104620001BE2BD4B1A688023DB001340F0D0BA4B6D
:104630005B68BA4A134019007B681B691A06B64BBF
:104640000A435A6019E0B44B1A68B34BB4490A40A4
:104650001A60FFF79FF903003B6108E0FFF79AF942
:1046600002003B69D31A022B01D90323F5E1AA4BBF
:104670001A688023DB001340F0D17B681B68082296
:10468000134051D07B685B69002B31D07B689B69FC
:10469000002B08D1A04A9423D3589F490422934366
:1046A00094228B5007E09C4A9423D3589A490422C1
:1046B000134394228B50984A9423D358964901224D
:1046C000134394228B50FFF765F903003B6108E028
:1046D000FFF760F902003B69D31A112B01D90323BC
:1046E000BBE18D4A9423D35802221340F0D01BE043
:1046F000894A9423D35888490122934394228B50AA
:10470000FFF748F903003B6108E0FFF743F90200B7
:104710003B69D31A112B01D903239EE17E4A9423CE
:10472000D35802221340F0D17B681B680422134047
:1047300000D10DE11F203B1800221A70764B9A6DB4
:1047400080235B05134010D1734B9A6D724B80210F
:1047500049050A439A65704B9A6D80235B051340A7
:10476000BB60BB683B1801221A706E4B1A6880232D
:104770005B0013401AD16B4B1A686A4B80214900C9
:104780000A431A60FFF706F903003B6108E0FFF7F0
:1047900001F902003B69D31A022B01D903235CE122
:1047A000604B1A6880235B001340F0D07B689B68E5
:1047B000012213401ED07B689B680422134010D056
:1047C000554A9023D35854490422134390228B50C6
:1047D000514A9023D35850490122134390228B50C1
:1047E00018E04D4A9023D3584B490122134390229D
:1047F0008B500FE0484A9023D358474901229343F6
:1048000090228B50444A9023D35843490422934327
:1048100090228B507B689B68002B4FD0FFF7BAF833
:1048200003003B6109E0FFF7B5F802003B69D31ACA
:104830003D4A934201D903230FE1374A9023D358CD
:1048400002221340EFD07B689B68802213401AD06D
:10485000314A9023D35830498022134390228B5001
:1048600009E0FFF797F802003B69D31A2E4A9342FA
:1048700001D90323F1E0284A9023D25880231B0159
:104880001340EED059E0244A9023D3582249802285
:10489000934390228B5009E0FFF77CF802003B69BC
:1048A000D31A214A934201D90323D6E01A4A90230E
:1048B000D25880231B011340EED13EE0FFF76AF887
:1048C00003003B6109E0FFF765F802003B69D31A7A
:1048D000154A934201D90323BFE00F4A9023D358CE
:1048E00002221340EFD10C4A9023D3588022134068
:1048F00023D0094A9023D35807498022934390221A
:104900008B5013E0FFF746F802003B69D31A064AC2
:1049100093420BD90323A0E000100240FFFFFF8069
:10492000FFFEFFFF00700040881300004D4A9023F7
:10493000D25880231B011340E4D11F23FB181B789E
:10494000012B05D1474B9A6D464B47490A409A6562
:104950007B689B6A002B00D17EE0424B9B6838222B
:104960001340182B00D175E07B689B6A022B56D14F
:104970003C4B1A683B4B3D490A401A60FFF70AF866
:1049800003003B6108E0FFF705F802003B69D31A1A
:10499000022B01D9032360E0324B1A6880239B0469
:1049A0001340F0D12F4BDB68314A134019007B686C
:1049B000DA6A7B681B6B1A437B685B6B1B021A43CA
:1049C0007B68DB6B1A437B681B6C1A437B689B6BB1
:1049D0001A43244B0A43DA60224BDA68214B8021C8
:1049E00049050A43DA601F4B1A681E4B80214904AF
:1049F0000A431A60FEF7CEFF03003B6108E0FEF7B2
:104A0000C9FF02003B69D31A022B01D9032324E01A
:104A1000144B1A6880239B041340F0D01CE0114B08
:104A20001A68104B11490A401A60FEF7B3FF0300E1
:104A30003B6108E0FEF7AEFF02003B69D31A022B90
:104A400001D9032309E0074B1A6880239B04134014
:104A5000F0D101E0012300E000231800BD4608B0BA
:104A6000B0BDC04600100240FFFFFFEFFFFFFFFE9A
:104A70008C80C111B0B584B000AF786039606C4BE8
:104A80001B68072213403A689A4211D9684B1B6889
:104A9000072293431900664B3A680A431A60644B35
:104AA0001B68072213403A689A4201D00123BBE0F9
:104AB0007B681B680122134000D164E07B685B685F
:104AC000032B07D15B4B1A6880239B04134038D11A
:104AD0000123A9E07B685B68022B07D1554B1A685C
:104AE00080239B0213402CD101239DE07B685B68EF
:104AF000002B06D14F4B1B680222134021D101230A
:104B000092E07B685B68012B07D14A4B1A688023CF
:104B1000DB00134015D1012386E07B685B68042B22
:104B200007D1444A9423D3580222134009D10123C8
:104B30007AE0404A9023D3580222134001D1012346
:104B400072E03C4B9B680722934319007B685A68CC
:104B5000384B0A439A60FEF71DFF0300FB6009E033
:104B6000FEF718FF0200FB68D31A334A934201D9BB
:104B7000032359E02F4B9B6838221A407B685B68FF
:104B8000DB009A42ECD17B681B680222134009D0FB
:104B9000284B9B68294A134019007B689A68254B6B
:104BA0000A439A60224B1B68072213403A689A42D4
:104BB00011D21F4B1B680722934319001C4B3A6804
:104BC0000A431A601A4B1B68072213403A689A423C
:104BD00001D0012328E07B681B680422134009D020
:104BE000144B9B68164A134019007B68DA68114B16
:104BF0000A439A6000F02AF801000E4B9B681B0ADA
:104C00000F2213400F4AD35C1A001F2313400A00DF
:104C1000DA400D4B1A600B257C190320FEF75EFE6F
:104C2000030023707B191B781800BD4604B0B0BD8B
:104C3000002002400010024088130000FFF0FFFF38
:104C4000FF8FFFFF544F00080000002080B58AB09E
:104C500000AF00237B6200233B62464B9B683822F7
:104C60001340BB61434BDB68032213407B61BB698C
:104C7000002B05D0BB69182B25D17B69012B22D1D4
:104C80003C4B1B680822134007D13A4A9423D3585F
:104C90001B0A0F2213407B6205E0364B1B681B0981
:104CA0000F2213407B627B6A0B2B01D900237B62AE
:104CB000314B7A6A9200D3587B62BB69002B1BD1BF
:104CC0007B6A3B6218E0BB69082B02D12B4B3B622D
:104CD00012E0BB69102B02D1294B3B620CE0BB698F
:104CE000202B03D1FA23DB013B6205E0BB69282BB3
:104CF00002D180231B023B62BB69182B35D11D4BAF
:104D0000DB68032213403B611A4BDB681B09072257
:104D100013400133FB603B69022B03D03B69032B3B
:104D200003D005E0154BFB6105E0154BFB6102E08C
:104D30007B6AFB61C0460F4BDB681B0A7F22134076
:104D4000FA695343F9681800FBF7DEF90300BB600A
:104D5000084BDB685B0F0722134001337B607968E7
:104D6000B868FBF7D1F903003B623B6A1800BD4607
:104D70000AB080BD00100240644F00080024F40017
:104D800000093D0080B586B000AF786000233B612C
:104D90002F4B9A6D80235B05134004D0FFF778FA00
:104DA00003007B6117E02A4B9A6D294B802149054E
:104DB0000A439A65264B9A6D80235B051340FB607E
:104DC000FB68FFF765FA03007B61214B9A6D204B6E
:104DD00020490A409A657A6980239B009A4211D142
:104DE0007B68802B1CD97B68B02B02D902233B61E6
:104DF00016E07B68902B02D901233B6110E0002371
:104E00003B610DE07B687F2B02D902233B6107E009
:104E10007B68702B02D101233B6101E000233B61E1
:104E20000D4B1B680722934319000B4B3A690A4349
:104E30001A60094B1B68072213403A699A4201D055
:104E4000012300E000231800BD4606B080BDC04627
:104E500000100240FFFFFFEF002002400300821815
:104E6000934200D1704719700133F9E770B50026FD
:104E70000C4C0D4D641BA410A64209D1002600F075
:104E800023F80A4C0A4D641BA410A64205D170BD3C
:104E9000B300EB5898470136EEE7B300EB5898475C
:104EA0000136F2E79C4F00089C4F0008A04F000815
:104EB0009C4F0008002310B59A4200D110BDCC5C75
:104EC000C4540133F8E70000F8B5C046F8BC08BC8C
:104ED0009E467047F8B5C046F8BC08BC9E46704771
:104EE00001B40248844601BC604700BF0D000020A9
:104EF000000C004001000000000000000000000065
:104F000002000140010000007F000000E1E9000014
:104F1000010000003930000000000000070401001B
:104F20000407000100040000142400000201020133
:104F300000000000FFFF000002010201000000006D
:104F4000FFFF000002EE00000262026200000000AB
:104F5000FFFF000000000000000000000102030449
:104F600006070809A0860100400D0300801A06000C
:104F700000350C0040420F0080841E0000093D00F7
:104F800000127A000024F40000366E010048E801A7
:044F9000006CDC02D3
:084F9400FCB4FF7F01000000E6
:044F9C00E900000820
:044FA000C100000844
:104FA40000093D00040000000100000080B588B045
:104FB40000AF786039601F23FB1800221A707B68E9
:104FC400BB613B687B611A4B5A69194B8021C9024A
:104FD4000A435A61EFF31083FB60FB683B6172B6CE
:104FE400C0460FE07A69BB6912681A607B690433B2
:104FF4007B61BB690433BB611F217B181A787B1862
:1050040001321A701F23FB181B783F2BEAD9C046C4
:10501400074B1A6980235B021340F9D13B69BB60DB
:10502400BB6883F31088C046C046BD4608B080BD47
:045034000020024016
:040000050800385D5A
:00000001FF
